{
  "contractName": "Token",
  "abi": [
    {
      "anonymous": false,
      "inputs": [
        {
          "indexed": true,
          "internalType": "address",
          "name": "_owner",
          "type": "address"
        },
        {
          "indexed": true,
          "internalType": "address",
          "name": "_spender",
          "type": "address"
        },
        {
          "indexed": false,
          "internalType": "uint256",
          "name": "_value",
          "type": "uint256"
        }
      ],
      "name": "Approval",
      "type": "event"
    },
    {
      "anonymous": false,
      "inputs": [
        {
          "indexed": true,
          "internalType": "address",
          "name": "from",
          "type": "address"
        },
        {
          "indexed": false,
          "internalType": "uint256",
          "name": "value",
          "type": "uint256"
        }
      ],
      "name": "Burn",
      "type": "event"
    },
    {
      "anonymous": false,
      "inputs": [
        {
          "indexed": true,
          "internalType": "address",
          "name": "_from",
          "type": "address"
        },
        {
          "indexed": true,
          "internalType": "address",
          "name": "_to",
          "type": "address"
        }
      ],
      "name": "OwnershipTransferred",
      "type": "event"
    },
    {
      "anonymous": false,
      "inputs": [
        {
          "indexed": true,
          "internalType": "address",
          "name": "_from",
          "type": "address"
        },
        {
          "indexed": true,
          "internalType": "address",
          "name": "_to",
          "type": "address"
        },
        {
          "indexed": false,
          "internalType": "uint256",
          "name": "_value",
          "type": "uint256"
        }
      ],
      "name": "Transfer",
      "type": "event"
    },
    {
      "constant": false,
      "inputs": [],
      "name": "acceptOwnership",
      "outputs": [],
      "payable": false,
      "stateMutability": "nonpayable",
      "type": "function"
    },
    {
      "constant": true,
      "inputs": [],
      "name": "decimals",
      "outputs": [
        {
          "internalType": "uint8",
          "name": "",
          "type": "uint8"
        }
      ],
      "payable": false,
      "stateMutability": "view",
      "type": "function"
    },
    {
      "constant": true,
      "inputs": [],
      "name": "name",
      "outputs": [
        {
          "internalType": "string",
          "name": "",
          "type": "string"
        }
      ],
      "payable": false,
      "stateMutability": "view",
      "type": "function"
    },
    {
      "constant": true,
      "inputs": [],
      "name": "newOwner",
      "outputs": [
        {
          "internalType": "address",
          "name": "",
          "type": "address"
        }
      ],
      "payable": false,
      "stateMutability": "view",
      "type": "function"
    },
    {
      "constant": true,
      "inputs": [],
      "name": "owner",
      "outputs": [
        {
          "internalType": "address",
          "name": "",
          "type": "address"
        }
      ],
      "payable": false,
      "stateMutability": "view",
      "type": "function"
    },
    {
      "constant": true,
      "inputs": [],
      "name": "symbol",
      "outputs": [
        {
          "internalType": "string",
          "name": "",
          "type": "string"
        }
      ],
      "payable": false,
      "stateMutability": "view",
      "type": "function"
    },
    {
      "constant": true,
      "inputs": [],
      "name": "totalSupply",
      "outputs": [
        {
          "internalType": "uint256",
          "name": "",
          "type": "uint256"
        }
      ],
      "payable": false,
      "stateMutability": "view",
      "type": "function"
    },
    {
      "constant": false,
      "inputs": [
        {
          "internalType": "address",
          "name": "_newOwner",
          "type": "address"
        }
      ],
      "name": "transferOwnership",
      "outputs": [],
      "payable": false,
      "stateMutability": "nonpayable",
      "type": "function"
    },
    {
      "constant": true,
      "inputs": [
        {
          "internalType": "address",
          "name": "_owner",
          "type": "address"
        }
      ],
      "name": "balanceOf",
      "outputs": [
        {
          "internalType": "uint256",
          "name": "balance",
          "type": "uint256"
        }
      ],
      "payable": false,
      "stateMutability": "view",
      "type": "function"
    },
    {
      "constant": false,
      "inputs": [
        {
          "internalType": "uint256",
          "name": "amount",
          "type": "uint256"
        }
      ],
      "name": "stake",
      "outputs": [
        {
          "internalType": "bool",
          "name": "",
          "type": "bool"
        }
      ],
      "payable": false,
      "stateMutability": "nonpayable",
      "type": "function"
    },
    {
      "constant": true,
      "inputs": [
        {
          "internalType": "address",
          "name": "account",
          "type": "address"
        }
      ],
      "name": "checkAddressOfArray",
      "outputs": [
        {
          "internalType": "bool",
          "name": "",
          "type": "bool"
        }
      ],
      "payable": false,
      "stateMutability": "view",
      "type": "function"
    },
    {
      "constant": true,
      "inputs": [
        {
          "internalType": "address",
          "name": "account",
          "type": "address"
        }
      ],
      "name": "balanceOfStake",
      "outputs": [
        {
          "internalType": "uint256",
          "name": "",
          "type": "uint256"
        }
      ],
      "payable": false,
      "stateMutability": "view",
      "type": "function"
    },
    {
      "constant": false,
      "inputs": [],
      "name": "withDraw",
      "outputs": [
        {
          "internalType": "uint256",
          "name": "",
          "type": "uint256"
        }
      ],
      "payable": false,
      "stateMutability": "nonpayable",
      "type": "function"
    },
    {
      "constant": false,
      "inputs": [
        {
          "internalType": "address",
          "name": "account",
          "type": "address"
        }
      ],
      "name": "checkDateDraw",
      "outputs": [
        {
          "internalType": "uint256",
          "name": "",
          "type": "uint256"
        }
      ],
      "payable": false,
      "stateMutability": "nonpayable",
      "type": "function"
    },
    {
      "constant": false,
      "inputs": [
        {
          "internalType": "uint256",
          "name": "amount",
          "type": "uint256"
        }
      ],
      "name": "unStaking",
      "outputs": [
        {
          "internalType": "bool",
          "name": "",
          "type": "bool"
        }
      ],
      "payable": false,
      "stateMutability": "nonpayable",
      "type": "function"
    },
    {
      "constant": false,
      "inputs": [
        {
          "internalType": "address",
          "name": "_to",
          "type": "address"
        },
        {
          "internalType": "uint256",
          "name": "_value",
          "type": "uint256"
        }
      ],
      "name": "transfer",
      "outputs": [
        {
          "internalType": "bool",
          "name": "success",
          "type": "bool"
        }
      ],
      "payable": false,
      "stateMutability": "nonpayable",
      "type": "function"
    },
    {
      "constant": false,
      "inputs": [
        {
          "internalType": "address",
          "name": "_from",
          "type": "address"
        },
        {
          "internalType": "address",
          "name": "_to",
          "type": "address"
        },
        {
          "internalType": "uint256",
          "name": "_value",
          "type": "uint256"
        }
      ],
      "name": "transferFrom",
      "outputs": [
        {
          "internalType": "bool",
          "name": "success",
          "type": "bool"
        }
      ],
      "payable": false,
      "stateMutability": "nonpayable",
      "type": "function"
    },
    {
      "constant": false,
      "inputs": [
        {
          "internalType": "address",
          "name": "_spender",
          "type": "address"
        },
        {
          "internalType": "uint256",
          "name": "_value",
          "type": "uint256"
        }
      ],
      "name": "approve",
      "outputs": [
        {
          "internalType": "bool",
          "name": "success",
          "type": "bool"
        }
      ],
      "payable": false,
      "stateMutability": "nonpayable",
      "type": "function"
    },
    {
      "constant": true,
      "inputs": [
        {
          "internalType": "address",
          "name": "_owner",
          "type": "address"
        },
        {
          "internalType": "address",
          "name": "_spender",
          "type": "address"
        }
      ],
      "name": "allowance",
      "outputs": [
        {
          "internalType": "uint256",
          "name": "remaining",
          "type": "uint256"
        }
      ],
      "payable": false,
      "stateMutability": "view",
      "type": "function"
    },
    {
      "constant": false,
      "inputs": [
        {
          "internalType": "address",
          "name": "tokenAddress",
          "type": "address"
        },
        {
          "internalType": "uint256",
          "name": "tokens",
          "type": "uint256"
        }
      ],
      "name": "transferAnyERC20Token",
      "outputs": [
        {
          "internalType": "bool",
          "name": "success",
          "type": "bool"
        }
      ],
      "payable": false,
      "stateMutability": "nonpayable",
      "type": "function"
    },
    {
      "constant": false,
      "inputs": [
        {
          "internalType": "address",
          "name": "_spender",
          "type": "address"
        },
        {
          "internalType": "uint256",
          "name": "_value",
          "type": "uint256"
        },
        {
          "internalType": "bytes",
          "name": "_extraData",
          "type": "bytes"
        }
      ],
      "name": "approveAndCall",
      "outputs": [
        {
          "internalType": "bool",
          "name": "success",
          "type": "bool"
        }
      ],
      "payable": false,
      "stateMutability": "nonpayable",
      "type": "function"
    },
    {
      "constant": false,
      "inputs": [
        {
          "internalType": "uint256",
          "name": "_value",
          "type": "uint256"
        }
      ],
      "name": "burn",
      "outputs": [
        {
          "internalType": "bool",
          "name": "success",
          "type": "bool"
        }
      ],
      "payable": false,
      "stateMutability": "nonpayable",
      "type": "function"
    },
    {
      "constant": false,
      "inputs": [
        {
          "internalType": "address",
          "name": "_from",
          "type": "address"
        },
        {
          "internalType": "uint256",
          "name": "_value",
          "type": "uint256"
        }
      ],
      "name": "burnFrom",
      "outputs": [
        {
          "internalType": "bool",
          "name": "success",
          "type": "bool"
        }
      ],
      "payable": false,
      "stateMutability": "nonpayable",
      "type": "function"
    }
  ],
  "bytecode": "0x608060405233600460006101000a81548173ffffffffffffffffffffffffffffffffffffffff021916908373ffffffffffffffffffffffffffffffffffffffff1602179055506126a7806100546000396000f3fe608060405234801561001057600080fd5b506004361061014d5760003560e01c806379cc6790116100c3578063cae9ca511161007c578063cae9ca51146106a2578063cb09e7c01461079f578063d4ee1d90146107f7578063dc39d06d14610841578063dd62ed3e146108a7578063f2fde38b1461091f5761014d565b806379cc67901461047d57806386f43a41146104e35780638da5cb5b1461052957806395d89b4114610573578063a694fc3a146105f6578063a9059cbb1461063c5761014d565b806325abe0621161011557806325abe062146102fd578063313ce5671461035557806342966c681461037957806346b5d0b7146103bf57806370a082311461041b57806379ba5097146104735761014d565b806306fdde0314610152578063095ea7b3146101d55780630fdb1c101461023b57806318160ddd1461025957806323b872dd14610277575b600080fd5b61015a610963565b6040518080602001828103825283818151815260200191508051906020019080838360005b8381101561019a57808201518184015260208101905061017f565b50505050905090810190601f1680156101c75780820380516001836020036101000a031916815260200191505b509250505060405180910390f35b610221600480360360408110156101eb57600080fd5b81019080803573ffffffffffffffffffffffffffffffffffffffff16906020019092919080359060200190929190505050610a01565b604051808215151515815260200191505060405180910390f35b610243610af3565b6040518082815260200191505060405180910390f35b610261610d23565b6040518082815260200191505060405180910390f35b6102e36004803603606081101561028d57600080fd5b81019080803573ffffffffffffffffffffffffffffffffffffffff169060200190929190803573ffffffffffffffffffffffffffffffffffffffff16906020019092919080359060200190929190505050610d29565b604051808215151515815260200191505060405180910390f35b61033f6004803603602081101561031357600080fd5b81019080803573ffffffffffffffffffffffffffffffffffffffff169060200190929190505050610ecd565b6040518082815260200191505060405180910390f35b61035d610f8f565b604051808260ff1660ff16815260200191505060405180910390f35b6103a56004803603602081101561038f57600080fd5b8101908080359060200190929190505050610fa2565b604051808215151515815260200191505060405180910390f35b610401600480360360208110156103d557600080fd5b81019080803573ffffffffffffffffffffffffffffffffffffffff1690602001909291905050506110a4565b604051808215151515815260200191505060405180910390f35b61045d6004803603602081101561043157600080fd5b81019080803573ffffffffffffffffffffffffffffffffffffffff16906020019092919050505061114d565b6040518082815260200191505060405180910390f35b61047b611196565b005b6104c96004803603604081101561049357600080fd5b81019080803573ffffffffffffffffffffffffffffffffffffffff16906020019092919080359060200190929190505050611335565b604051808215151515815260200191505060405180910390f35b61050f600480360360208110156104f957600080fd5b810190808035906020019092919050505061154b565b604051808215151515815260200191505060405180910390f35b6105316118d2565b604051808273ffffffffffffffffffffffffffffffffffffffff1673ffffffffffffffffffffffffffffffffffffffff16815260200191505060405180910390f35b61057b6118f8565b6040518080602001828103825283818151815260200191508051906020019080838360005b838110156105bb5780820151818401526020810190506105a0565b50505050905090810190601f1680156105e85780820380516001836020036101000a031916815260200191505b509250505060405180910390f35b6106226004803603602081101561060c57600080fd5b8101908080359060200190929190505050611996565b604051808215151515815260200191505060405180910390f35b6106886004803603604081101561065257600080fd5b81019080803573ffffffffffffffffffffffffffffffffffffffff16906020019092919080359060200190929190505050611de0565b604051808215151515815260200191505060405180910390f35b610785600480360360608110156106b857600080fd5b81019080803573ffffffffffffffffffffffffffffffffffffffff16906020019092919080359060200190929190803590602001906401000000008111156106ff57600080fd5b82018360208201111561071157600080fd5b8035906020019184600183028401116401000000008311171561073357600080fd5b91908080601f016020809104026020016040519081016040528093929190818152602001838380828437600081840152601f19601f820116905080830192505050505050509192919290505050611df7565b604051808215151515815260200191505060405180910390f35b6107e1600480360360208110156107b557600080fd5b81019080803573ffffffffffffffffffffffffffffffffffffffff169060200190929190505050611f54565b6040518082815260200191505060405180910390f35b6107ff611f9d565b604051808273ffffffffffffffffffffffffffffffffffffffff1673ffffffffffffffffffffffffffffffffffffffff16815260200191505060405180910390f35b61088d6004803603604081101561085757600080fd5b81019080803573ffffffffffffffffffffffffffffffffffffffff16906020019092919080359060200190929190505050611fc3565b604051808215151515815260200191505060405180910390f35b610909600480360360408110156108bd57600080fd5b81019080803573ffffffffffffffffffffffffffffffffffffffff169060200190929190803573ffffffffffffffffffffffffffffffffffffffff16906020019092919050505061210b565b6040518082815260200191505060405180910390f35b6109616004803603602081101561093557600080fd5b81019080803573ffffffffffffffffffffffffffffffffffffffff169060200190929190505050612192565b005b60008054600181600116156101000203166002900480601f0160208091040260200160405190810160405280929190818152602001828054600181600116156101000203166002900480156109f95780601f106109ce576101008083540402835291602001916109f9565b820191906000526020600020905b8154815290600101906020018083116109dc57829003601f168201915b505050505081565b600081600d60003373ffffffffffffffffffffffffffffffffffffffff1673ffffffffffffffffffffffffffffffffffffffff16815260200190815260200160002060008573ffffffffffffffffffffffffffffffffffffffff1673ffffffffffffffffffffffffffffffffffffffff168152602001908152602001600020819055508273ffffffffffffffffffffffffffffffffffffffff163373ffffffffffffffffffffffffffffffffffffffff167f8c5be1e5ebec7d5bd14f71427d1e84f3dd0314c0f7b2291e5b200ac8c7c3b925846040518082815260200191505060405180910390a36001905092915050565b600080600080905060008090505b600f80549050811015610cc3573373ffffffffffffffffffffffffffffffffffffffff16600f8281548110610b3257fe5b906000526020600020906003020160000160009054906101000a900473ffffffffffffffffffffffffffffffffffffffff1673ffffffffffffffffffffffffffffffffffffffff161415610cb65760008090505b600f8281548110610b9357fe5b906000526020600020906003020160010180549050811015610c9157600f8281548110610bbc57fe5b90600052602060002090600302016001018181548110610bd857fe5b90600052602060002090600302016002015442039350601e8410610c45578360646001600f8581548110610c0857fe5b90600052602060002090600302016001018481548110610c2457fe5b9060005260206000209060030201600001540281610c3e57fe5b0402830192505b42600f8381548110610c5357fe5b90600052602060002090600302016001018281548110610c6f57fe5b9060005260206000209060030201600201819055508080600101915050610b86565b5042600f8281548110610ca057fe5b9060005260206000209060030201600201819055505b8080600101915050610b01565b50610ccf303383612230565b6000600e60003373ffffffffffffffffffffffffffffffffffffffff1673ffffffffffffffffffffffffffffffffffffffff1681526020019081526020016000205411610d1b57600090505b809250505090565b60035481565b60003373ffffffffffffffffffffffffffffffffffffffff168473ffffffffffffffffffffffffffffffffffffffff1614610d6357600080fd5b600e60008573ffffffffffffffffffffffffffffffffffffffff1673ffffffffffffffffffffffffffffffffffffffff16815260200190815260200160002054600d60008673ffffffffffffffffffffffffffffffffffffffff1673ffffffffffffffffffffffffffffffffffffffff16815260200190815260200160002060003373ffffffffffffffffffffffffffffffffffffffff1673ffffffffffffffffffffffffffffffffffffffff1681526020019081526020016000205403821115610e2d57600080fd5b81600d60008673ffffffffffffffffffffffffffffffffffffffff1673ffffffffffffffffffffffffffffffffffffffff16815260200190815260200160002060003373ffffffffffffffffffffffffffffffffffffffff1673ffffffffffffffffffffffffffffffffffffffff16815260200190815260200160002060008282540392505081905550610ec2848484612230565b600190509392505050565b600080600090505b600f80549050811015610f88578273ffffffffffffffffffffffffffffffffffffffff16600f8281548110610f0657fe5b906000526020600020906003020160000160009054906101000a900473ffffffffffffffffffffffffffffffffffffffff1673ffffffffffffffffffffffffffffffffffffffff161415610f7b57600f8181548110610f6157fe5b906000526020600020906003020160020154915050610f8a565b8080600101915050610ed5565b505b919050565b600260009054906101000a900460ff1681565b600081600c60003373ffffffffffffffffffffffffffffffffffffffff1673ffffffffffffffffffffffffffffffffffffffff168152602001908152602001600020541015610ff057600080fd5b81600c60003373ffffffffffffffffffffffffffffffffffffffff1673ffffffffffffffffffffffffffffffffffffffff16815260200190815260200160002060008282540392505081905550816003600082825403925050819055503373ffffffffffffffffffffffffffffffffffffffff167fcc16f5dbb4873280815c1ee09dbd06736cffcc184412cf7a71a0fdb75d397ca5836040518082815260200191505060405180910390a260019050919050565b600080600090505b600f80549050811015611142578273ffffffffffffffffffffffffffffffffffffffff16600f82815481106110dd57fe5b906000526020600020906003020160000160009054906101000a900473ffffffffffffffffffffffffffffffffffffffff1673ffffffffffffffffffffffffffffffffffffffff161415611135576001915050611148565b80806001019150506110ac565b50600090505b919050565b6000600c60008373ffffffffffffffffffffffffffffffffffffffff1673ffffffffffffffffffffffffffffffffffffffff168152602001908152602001600020549050919050565b600560009054906101000a900473ffffffffffffffffffffffffffffffffffffffff1673ffffffffffffffffffffffffffffffffffffffff163373ffffffffffffffffffffffffffffffffffffffff16146111f057600080fd5b600560009054906101000a900473ffffffffffffffffffffffffffffffffffffffff1673ffffffffffffffffffffffffffffffffffffffff16600460009054906101000a900473ffffffffffffffffffffffffffffffffffffffff1673ffffffffffffffffffffffffffffffffffffffff167f8be0079c531659141344cd1fd0a4f28419497f9722a3daafe3b4186f6b6457e060405160405180910390a3600560009054906101000a900473ffffffffffffffffffffffffffffffffffffffff16600460006101000a81548173ffffffffffffffffffffffffffffffffffffffff021916908373ffffffffffffffffffffffffffffffffffffffff1602179055506000600560006101000a81548173ffffffffffffffffffffffffffffffffffffffff021916908373ffffffffffffffffffffffffffffffffffffffff160217905550565b600081600c60008573ffffffffffffffffffffffffffffffffffffffff1673ffffffffffffffffffffffffffffffffffffffff16815260200190815260200160002054101561138357600080fd5b600d60008473ffffffffffffffffffffffffffffffffffffffff1673ffffffffffffffffffffffffffffffffffffffff16815260200190815260200160002060003373ffffffffffffffffffffffffffffffffffffffff1673ffffffffffffffffffffffffffffffffffffffff1681526020019081526020016000205482111561140c57600080fd5b81600c60008573ffffffffffffffffffffffffffffffffffffffff1673ffffffffffffffffffffffffffffffffffffffff1681526020019081526020016000206000828254039250508190555081600d60008573ffffffffffffffffffffffffffffffffffffffff1673ffffffffffffffffffffffffffffffffffffffff16815260200190815260200160002060003373ffffffffffffffffffffffffffffffffffffffff1673ffffffffffffffffffffffffffffffffffffffff16815260200190815260200160002060008282540392505081905550816003600082825403925050819055508273ffffffffffffffffffffffffffffffffffffffff167fcc16f5dbb4873280815c1ee09dbd06736cffcc184412cf7a71a0fdb75d397ca5836040518082815260200191505060405180910390a26001905092915050565b6000600e60003373ffffffffffffffffffffffffffffffffffffffff1673ffffffffffffffffffffffffffffffffffffffff1681526020019081526020016000205482111561159957600080fd5b60008210156115a757600080fd5b81600e60003373ffffffffffffffffffffffffffffffffffffffff1673ffffffffffffffffffffffffffffffffffffffff1681526020019081526020016000206000828254039250508190555060008090505b600f805490508110156118cb573373ffffffffffffffffffffffffffffffffffffffff16600f828154811061162b57fe5b906000526020600020906003020160000160009054906101000a900473ffffffffffffffffffffffffffffffffffffffff1673ffffffffffffffffffffffffffffffffffffffff1614156118be5760006001600f838154811061168a57fe5b9060005260206000209060030201600101805490500390505b600081106118bc57600f82815481106116b857fe5b906000526020600020906003020160010181815481106116d457fe5b906000526020600020906003020160000154841161174a5783600f83815481106116fa57fe5b9060005260206000209060030201600101828154811061171657fe5b90600052602060002090600302016000016000828254039250508190555061173f303386612230565b6001925050506118cd565b600f828154811061175757fe5b9060005260206000209060030201600101818154811061177357fe5b906000526020600020906003020160000154840393506000600f838154811061179857fe5b906000526020600020906003020160010182815481106117b457fe5b906000526020600020906003020160000181905550600f82815481106117d657fe5b906000526020600020906003020160010181815481106117f257fe5b906000526020600020906003020160000154600e60003373ffffffffffffffffffffffffffffffffffffffff1673ffffffffffffffffffffffffffffffffffffffff1681526020019081526020016000206000828254039250508190555061185b303386612230565b6000600f838154811061186a57fe5b9060005260206000209060030201600101828154811061188657fe5b906000526020600020906003020160010160006101000a81548160ff0219169083151502179055508080600190039150506116a3565b505b80806001019150506115fa565b505b919050565b600460009054906101000a900473ffffffffffffffffffffffffffffffffffffffff1681565b60018054600181600116156101000203166002900480601f01602080910402602001604051908101604052809291908181526020018280546001816001161561010002031660029004801561198e5780601f106119635761010080835404028352916020019161198e565b820191906000526020600020905b81548152906001019060200180831161197157829003601f168201915b505050505081565b60008082116119a457600080fd5b6119ad3361114d565b8211156119b957600080fd5b6119c4333084612230565b81600e60003373ffffffffffffffffffffffffffffffffffffffff1673ffffffffffffffffffffffffffffffffffffffff1681526020019081526020016000206000828254019250508190555033600960000160006101000a81548173ffffffffffffffffffffffffffffffffffffffff021916908373ffffffffffffffffffffffffffffffffffffffff160217905550600060096002018190555042600660020181905550816006600001819055506001600660010160006101000a81548160ff0219169083151502179055506000600f805490501415611bd1576009600101600690806001815401808255809150509060018203906000526020600020906003020160009091929091909150600082015481600001556001820160009054906101000a900460ff168160010160006101000a81548160ff02191690831515021790555060028201548160020155505050600f6009908060018154018082558091505090600182039060005260206000209060030201600090919290919091506000820160009054906101000a900473ffffffffffffffffffffffffffffffffffffffff168160000160006101000a81548173ffffffffffffffffffffffffffffffffffffffff021916908373ffffffffffffffffffffffffffffffffffffffff1602179055506001820181600101908054611bc2929190612596565b50600282015481600201555050505b60008090505b600f80549050811015611dd657600960000160009054906101000a900473ffffffffffffffffffffffffffffffffffffffff1673ffffffffffffffffffffffffffffffffffffffff16600f8281548110611c2d57fe5b906000526020600020906003020160000160009054906101000a900473ffffffffffffffffffffffffffffffffffffffff1673ffffffffffffffffffffffffffffffffffffffff1614611d3957600f6009908060018154018082558091505090600182039060005260206000209060030201600090919290919091506000820160009054906101000a900473ffffffffffffffffffffffffffffffffffffffff168160000160006101000a81548173ffffffffffffffffffffffffffffffffffffffff021916908373ffffffffffffffffffffffffffffffffffffffff1602179055506001820181600101908054611d26929190612596565b5060028201548160020155505050611dc9565b600f8181548110611d4657fe5b9060005260206000209060030201600101600690806001815401808255809150509060018203906000526020600020906003020160009091929091909150600082015481600001556001820160009054906101000a900460ff168160010160006101000a81548160ff021916908315150217905550600282015481600201555050505b8080600101915050611bd7565b5060019050919050565b6000611ded338484612230565b6001905092915050565b600080849050611e078585610a01565b508073ffffffffffffffffffffffffffffffffffffffff16638f4ffcb1338630876040518563ffffffff1660e01b8152600401808573ffffffffffffffffffffffffffffffffffffffff1673ffffffffffffffffffffffffffffffffffffffff1681526020018481526020018373ffffffffffffffffffffffffffffffffffffffff1673ffffffffffffffffffffffffffffffffffffffff16815260200180602001828103825283818151815260200191508051906020019080838360005b83811015611ee1578082015181840152602081019050611ec6565b50505050905090810190601f168015611f0e5780820380516001836020036101000a031916815260200191505b5095505050505050600060405180830381600087803b158015611f3057600080fd5b505af1158015611f44573d6000803e3d6000fd5b5050505060019150509392505050565b6000600e60008373ffffffffffffffffffffffffffffffffffffffff1673ffffffffffffffffffffffffffffffffffffffff168152602001908152602001600020549050919050565b600560009054906101000a900473ffffffffffffffffffffffffffffffffffffffff1681565b6000600460009054906101000a900473ffffffffffffffffffffffffffffffffffffffff1673ffffffffffffffffffffffffffffffffffffffff163373ffffffffffffffffffffffffffffffffffffffff161461201f57600080fd5b8273ffffffffffffffffffffffffffffffffffffffff1663a9059cbb600460009054906101000a900473ffffffffffffffffffffffffffffffffffffffff16846040518363ffffffff1660e01b8152600401808373ffffffffffffffffffffffffffffffffffffffff1673ffffffffffffffffffffffffffffffffffffffff16815260200182815260200192505050602060405180830381600087803b1580156120c857600080fd5b505af11580156120dc573d6000803e3d6000fd5b505050506040513d60208110156120f257600080fd5b8101908080519060200190929190505050905092915050565b6000600d60008473ffffffffffffffffffffffffffffffffffffffff1673ffffffffffffffffffffffffffffffffffffffff16815260200190815260200160002060008373ffffffffffffffffffffffffffffffffffffffff1673ffffffffffffffffffffffffffffffffffffffff16815260200190815260200160002054905092915050565b600460009054906101000a900473ffffffffffffffffffffffffffffffffffffffff1673ffffffffffffffffffffffffffffffffffffffff163373ffffffffffffffffffffffffffffffffffffffff16146121ec57600080fd5b80600560006101000a81548173ffffffffffffffffffffffffffffffffffffffff021916908373ffffffffffffffffffffffffffffffffffffffff16021790555050565b600073ffffffffffffffffffffffffffffffffffffffff168273ffffffffffffffffffffffffffffffffffffffff16141561226a57600080fd5b600e60008473ffffffffffffffffffffffffffffffffffffffff1673ffffffffffffffffffffffffffffffffffffffff168152602001908152602001600020548101600c60008573ffffffffffffffffffffffffffffffffffffffff1673ffffffffffffffffffffffffffffffffffffffff1681526020019081526020016000205410156122f757600080fd5b600c60008373ffffffffffffffffffffffffffffffffffffffff1673ffffffffffffffffffffffffffffffffffffffff1681526020019081526020016000205481600c60008573ffffffffffffffffffffffffffffffffffffffff1673ffffffffffffffffffffffffffffffffffffffff16815260200190815260200160002054011161238357600080fd5b6000600c60008473ffffffffffffffffffffffffffffffffffffffff1673ffffffffffffffffffffffffffffffffffffffff16815260200190815260200160002054600c60008673ffffffffffffffffffffffffffffffffffffffff1673ffffffffffffffffffffffffffffffffffffffff1681526020019081526020016000205401905081600c60008673ffffffffffffffffffffffffffffffffffffffff1673ffffffffffffffffffffffffffffffffffffffff1681526020019081526020016000206000828254039250508190555081600c60008573ffffffffffffffffffffffffffffffffffffffff1673ffffffffffffffffffffffffffffffffffffffff168152602001908152602001600020600082825401925050819055508273ffffffffffffffffffffffffffffffffffffffff168473ffffffffffffffffffffffffffffffffffffffff167fddf252ad1be2c89b69c2b068fc378daa952ba7f163c4a11628f55a4df523b3ef846040518082815260200191505060405180910390a380600c60008573ffffffffffffffffffffffffffffffffffffffff1673ffffffffffffffffffffffffffffffffffffffff16815260200190815260200160002054600c60008773ffffffffffffffffffffffffffffffffffffffff1673ffffffffffffffffffffffffffffffffffffffff16815260200190815260200160002054011461259057fe5b50505050565b82805482825590600052602060002090600302810192821561261e5760005260206000209160030282015b8281111561261d578282600082015481600001556001820160009054906101000a900460ff168160010160006101000a81548160ff021916908315150217905550600282015481600201555050916003019190600301906125c1565b5b50905061262b919061262f565b5090565b61266f91905b8082111561266b576000808201600090556001820160006101000a81549060ff0219169055600282016000905550600301612635565b5090565b9056fea265627a7a723158202f14b76724422ac4b90f7d89bd2d3d7f16d718634eba17545a2804e4abe12abb64736f6c63430005100032",
  "source": "pragma solidity ^0.5.0;\r\n/**\r\nERC20 & TRC20 Token\r\nSymbol          : nhancv\r\nName            : Eric Cao Token\r\nTotal supply    : 1000000000\r\nDecimals        : 6\r\n@ nhancv MIT license\r\n */\r\n\r\n// ---------------------------------------------------------------------\r\n// ERC-20 Token Standard Interface\r\n// https://github.com/ethereum/EIPs/blob/master/EIPS/eip-20.md\r\n// ---------------------------------------------------------------------\r\ncontract ERC20Interface {\r\n  /**\r\n  Returns the name of the token - e.g. \"MyToken\"\r\n   */\r\n  string public name;\r\n  /**\r\n  Returns the symbol of the token. E.g. \"HIX\".\r\n   */\r\n  string public symbol;\r\n  /**\r\n  Returns the number of decimals the token uses - e. g. 8\r\n   */\r\n  uint8 public decimals;\r\n  /**\r\n  Returns the total token supply.\r\n   */\r\n  uint256 public totalSupply;\r\n  /**\r\n  Returns the account balance of another account with address _owner.\r\n   */\r\n  function balanceOf(address _owner) public view returns (uint256 balance);\r\n  /**\r\n  Transfers _value amount of tokens to address _to, and MUST fire the Transfer event. \r\n  The function SHOULD throw if the _from account balance does not have enough tokens to spend.\r\n   */\r\n  function transfer(address _to, uint256 _value) public returns (bool success);\r\n  /**\r\n  Transfers _value amount of tokens from address _from to address _to, and MUST fire the Transfer event.\r\n   */\r\n  function transferFrom(address _from, address _to, uint256 _value) public returns (bool success);\r\n  /**\r\n  Allows _spender to withdraw from your account multiple times, up to the _value amount. \r\n  If this function is called again it overwrites the current allowance with _value.\r\n   */\r\n  function approve(address _spender, uint256 _value) public returns (bool success);\r\n  /**\r\n  Returns the amount which _spender is still allowed to withdraw from _owner.\r\n   */\r\n  function allowance(address _owner, address _spender) public view returns (uint256 remaining);\r\n  /**\r\n  MUST trigger when tokens are transferred, including zero value transfers.\r\n   */\r\n  event Transfer(address indexed _from, address indexed _to, uint256 _value);\r\n  /**\r\n  MUST trigger on any successful call to approve(address _spender, uint256 _value).\r\n    */\r\n  event Approval(address indexed _owner, address indexed _spender, uint256 _value);\r\n}\r\n\r\n/**\r\nOwned contract\r\n */\r\ncontract Owned {\r\n    address public owner;\r\n    address public newOwner;\r\n \r\n\r\n  event OwnershipTransferred(address indexed _from, address indexed _to);\r\n\r\n  constructor () public {\r\n    owner = msg.sender;\r\n  }\r\n\r\n  modifier onlyOwner {\r\n    require(msg.sender == owner);\r\n    _;\r\n  }\r\n  \r\n\r\n  function transferOwnership(address _newOwner) public onlyOwner {\r\n    newOwner = _newOwner;\r\n  }\r\n\r\n  function acceptOwnership() public {\r\n    require(msg.sender == newOwner);\r\n    emit OwnershipTransferred(owner, newOwner);\r\n    owner = newOwner;\r\n    newOwner = address(0);\r\n  }\r\n}\r\n\r\n/**\r\nFunction to receive approval and execute function in one call.\r\n */\r\ncontract TokenRecipient { \r\n  function receiveApproval(address _from, uint256 _value, address _token, bytes memory _extraData) public; \r\n}\r\n\r\n/**\r\nToken implement\r\n */\r\ncontract Token is ERC20Interface, Owned {\r\n    struct stakingInfo {\r\n        uint256 amount;\r\n        bool requested;\r\n        uint256 releaseDate;\r\n    }\r\n    \r\n    stakingInfo stk;\r\n    \r\n    struct userStake{\r\n        address account;\r\n        stakingInfo[] StakeMap; //address dau tien la dia chi cua token, address thu hai la dia chi cua minh msg.sender\r\n        uint256 drawDate;\r\n    }\r\n    userStake user;\r\n  mapping (address => uint256) _balances;\r\n  mapping (address => mapping (address => uint256)) _allowed;\r\n  mapping (address => uint256) private _stake; // tong tien minh stake\r\n  userStake[] UserMap; // mang chua cac user\r\n  // This notifies clients about the amount burnt\r\n  event Burn(address indexed from, uint256 value);\r\n  \r\n  function balanceOf(address _owner) public view returns (uint256 balance) {\r\n        return _balances[_owner];\r\n  }\r\n  \r\n   function stake(uint256 amount) public returns (bool) {\r\n        require(amount > 0);\r\n        require(amount <= balanceOf(msg.sender));\r\n        _transfer(msg.sender,address(this), amount);\r\n        _stake[msg.sender] += amount;\r\n        user.account = msg.sender;\r\n        user.drawDate = 0;\r\n        stk.releaseDate  = now;\r\n        stk.amount = amount;\r\n        stk.requested = true;\r\n        if(UserMap.length == 0) {\r\n            user.StakeMap.push(stk);    \r\n            UserMap.push(user);\r\n        }\r\n        for(uint256 i=0;i<UserMap.length;i++) {\r\n            if(UserMap[i].account != user.account) {\r\n                UserMap.push(user);\r\n            } else {\r\n                UserMap[i].StakeMap.push(stk);    \r\n            }\r\n        }\r\n        return true;\r\n    }\r\n    \r\n    function checkAddressOfArray(address account) public view returns (bool){\r\n        for(uint256 i=0;i<UserMap.length;i++) {\r\n            if(UserMap[i].account == account) {\r\n                return true;\r\n            }\r\n        }\r\n        return false;\r\n    }\r\n    // function userOfStake() public view returns (userStake[] memory) {\r\n    //     return UserMap;\r\n    // }\r\n    \r\n    function balanceOfStake(address account) public view  returns (uint256) {\r\n        return _stake[account];\r\n    }\r\n    \r\n    function withDraw() public  returns (uint256) {\r\n        uint256 timeStake;\r\n        uint256 sum = 0;\r\n        for(uint256 j=0;j<UserMap.length;j++)\r\n        {\r\n            if(UserMap[j].account == msg.sender){\r\n                for(uint256 i=0;i<UserMap[j].StakeMap.length;i++) {\r\n                    timeStake = (now - UserMap[j].StakeMap[i].releaseDate) ;\r\n                    if(timeStake >= 30){\r\n                            sum += UserMap[j].StakeMap[i].amount * 1 / 100 * timeStake ;\r\n                    }\r\n                    UserMap[j].StakeMap[i].releaseDate = now;\r\n                }\r\n                UserMap[j].drawDate = now;\r\n            }\r\n        }\r\n        _transfer(address(this),msg.sender,sum);\r\n           if(_stake[msg.sender] <= 0 ) {\r\n                sum = 0;                    \r\n          }\r\n          return sum;\r\n    }\r\n    \r\n    function checkDateDraw(address account) public returns (uint256) {\r\n        for(uint256 i=0;i<UserMap.length;i++)\r\n        {\r\n            if(UserMap[i].account==account){\r\n                return UserMap[i].drawDate;\r\n            }\r\n        }\r\n    }\r\n  function unStaking(uint256 amount) public returns (bool) {\r\n      require(amount <= _stake[msg.sender]);\r\n      require(amount >= 0);\r\n      _stake[msg.sender] -= amount;\r\n      for(uint256 j=0;j< UserMap.length;j++)\r\n      {\r\n          if(UserMap[j].account==msg.sender)\r\n          {\r\n                for(uint256 i= UserMap[j].StakeMap.length-1; i>=0;i--){\r\n                     if(amount <= UserMap[j].StakeMap[i].amount) {\r\n                      UserMap[j].StakeMap[i].amount -= amount;\r\n                      _transfer(address(this),msg.sender,amount);\r\n                        return true;\r\n                      } else {\r\n                        amount -= UserMap[j].StakeMap[i].amount;\r\n                        UserMap[j].StakeMap[i].amount = 0;\r\n                      _stake[msg.sender] -= UserMap[j].StakeMap[i].amount;\r\n                      _transfer(address(this),msg.sender,amount);\r\n                          UserMap[j].StakeMap[i].requested = false;\r\n                      }\r\n                }\r\n          }\r\n      }\r\n  }\r\n\r\n  function transfer(address _to, uint256 _value) public returns (bool success) {\r\n    _transfer(msg.sender, _to, _value);\r\n    return true;\r\n  }\r\n\r\n  function transferFrom(address _from, address _to, uint256 _value) public returns (bool success) {\r\n    require(_from == msg.sender);\r\n    require(_value <= _allowed[_from][msg.sender]-_stake[_from]); \r\n    _allowed[_from][msg.sender] -= _value;\r\n    _transfer(_from, _to, _value);\r\n    return true;\r\n  }\r\n\r\n  function approve(address _spender, uint256 _value) public returns (bool success) {\r\n    _allowed[msg.sender][_spender] = _value;\r\n    emit Approval(msg.sender, _spender, _value);\r\n    return true;\r\n  }\r\n\r\n  function allowance(address _owner, address _spender) public view returns (uint256 remaining) {\r\n    return _allowed[_owner][_spender];\r\n  }\r\n\r\n  /**\r\n  Owner can transfer out any accidentally sent ERC20 tokens\r\n   */\r\n  function transferAnyERC20Token(address tokenAddress, uint tokens) public onlyOwner returns (bool success) {\r\n    return ERC20Interface(tokenAddress).transfer(owner, tokens);\r\n  }\r\n\r\n  /**\r\n  Approves and then calls the receiving contract\r\n   */\r\n  function approveAndCall(address _spender, uint256 _value, bytes memory _extraData) public returns (bool success) {\r\n    TokenRecipient spender = TokenRecipient(_spender);\r\n    approve(_spender, _value);\r\n    spender.receiveApproval(msg.sender, _value, address(this), _extraData);\r\n    return true;\r\n  }\r\n\r\n  /**\r\n  Destroy tokens.\r\n  Remove `_value` tokens from the system irreversibly\r\n    */\r\n  function burn(uint256 _value) public returns (bool success) {\r\n    require(_balances[msg.sender] >= _value);\r\n    _balances[msg.sender] -= _value;\r\n    totalSupply -= _value;\r\n    emit Burn(msg.sender, _value);\r\n    return true;\r\n  }\r\n\r\n  /**\r\n  Destroy tokens from other account.\r\n  Remove `_value` tokens from the system irreversibly on behalf of `_from`.\r\n    */\r\n  function burnFrom(address _from, uint256 _value) public returns (bool success) {\r\n    require(_balances[_from] >= _value);\r\n    require(_value <= _allowed[_from][msg.sender]);\r\n    _balances[_from] -= _value;\r\n    _allowed[_from][msg.sender] -= _value;\r\n    totalSupply -= _value;\r\n    emit Burn(_from, _value);\r\n    return true;\r\n  }\r\n\r\n  /**\r\n  Internal transfer, only can be called by this contract\r\n    */\r\n  function _transfer(address _from, address _to, uint _value) internal {\r\n    // Prevent transfer to 0x0 address. Use burn() instead\r\n    require(_to != address(0x0));\r\n    // Check if the sender has enough\r\n     require(_balances[_from] >= _value + _stake[_from]);\r\n    // Check for overflows\r\n    require(_balances[_to] + _value > _balances[_to]);\r\n    // Save this for an assertion in the future\r\n    uint previousBalances = _balances[_from] + _balances[_to];\r\n    // Subtract from the sender\r\n    _balances[_from] -= _value;\r\n    // Add the same to the recipient\r\n    _balances[_to] += _value;\r\n    emit Transfer(_from, _to, _value);\r\n    // Asserts are used to use static analysis to find bugs in your code. They should never fail\r\n    assert(_balances[_from] + _balances[_to] == previousBalances);\r\n  }\r\n\r\n}\r\n\r\ncontract CommonToken is Token {\r\n\r\n  constructor(string memory _name, string memory _symbol, uint8 _decimals, uint256 _initialSupply) public {\r\n    name = _name;\r\n    symbol = _symbol;\r\n    decimals = _decimals;\r\n    totalSupply = _initialSupply * 10 ** uint256(decimals);\r\n    _balances[msg.sender] = totalSupply;\r\n  }\r\n\r\n  /**\r\n  If ether is sent to this address, send it back.\r\n   */\r\n  function () external payable {\r\n    revert();\r\n  }\r\n\r\n}\r\n\r\ncontract NCToken is CommonToken {\r\n\r\n   constructor() CommonToken(\"acgroup\", \"AC\", 6, 1000) public {}\r\n\r\n\r\n}\r\n\r\n",
  "sourcePath": "C:/Users/Ghost.Vn/Documents/dapp_blockchain/dapp04/contracts/StakingContract.sol",
  "compiler": {
    "name": "solc",
    "version": "0.5.16+commit.9c3226ce.Emscripten.clang"
  },
  "schemaVersion": "3.3.1",
  "updatedAt": "2020-11-07T10:07:13.217Z",
  "devdoc": {
    "methods": {}
  },
  "userdoc": {
    "methods": {
      "approveAndCall(address,uint256,bytes)": {
        "notice": "Approves and then calls the receiving contract"
      },
      "burn(uint256)": {
        "notice": "Destroy tokens. Remove `_value` tokens from the system irreversibly"
      },
      "burnFrom(address,uint256)": {
        "notice": "Destroy tokens from other account. Remove `_value` tokens from the system irreversibly on behalf of `_from`."
      },
      "transferAnyERC20Token(address,uint256)": {
        "notice": "Owner can transfer out any accidentally sent ERC20 tokens"
      }
    },
    "notice": "Token implement"
  }
}